{
  "transactions": [
    {
      "hash": "0x4a0b951e96bd5505e54550b00b9ee311af07664af77b0da340696c672f5b5e1f",
      "transactionType": "CALL",
      "contractName": null,
      "contractAddress": "0xb7f8bc63bbcad18155201308c8f3540b07f84f5e",
      "function": "approve(address,uint256)",
      "arguments": [
        "0x000000000022D473030F116dDEE9F6B43aC78BA3",
        "115792089237316195423570985008687907853269984665640564039457584007913129639935"
      ],
      "transaction": {
        "from": "0xf39fd6e51aad88f6f4ce6ab8827279cfffb92266",
        "to": "0xb7f8bc63bbcad18155201308c8f3540b07f84f5e",
        "gas": "0x8df2",
        "value": "0x0",
        "input": "0x095ea7b3000000000000000000000000000000000022d473030f116ddee9f6b43ac78ba3ffffffffffffffffffffffffffffffffffffffffffffffffffffffffffffffff",
        "nonce": "0x23",
        "chainId": "0x7a69"
      },
      "additionalContracts": [],
      "isFixedGasLimit": false
    },
    {
      "hash": "0x91a11d4591449c9373494f3e66613c280f54dc97a00cdceddd6411795460bc3c",
      "transactionType": "CALL",
      "contractName": null,
      "contractAddress": "0x000000000022d473030f116ddee9f6b43ac78ba3",
      "function": "approve(address,address,uint160,uint48)",
      "arguments": [
        "0xB7f8BC63BbcaD18155201308C8f3540b07f84F5e",
        "0x0165878A594ca255338adfa4d48449f69242Eb8F",
        "1461501637330902918203684832716283019655932542975",
        "281474976710655"
      ],
      "transaction": {
        "from": "0xf39fd6e51aad88f6f4ce6ab8827279cfffb92266",
        "to": "0x000000000022d473030f116ddee9f6b43ac78ba3",
        "gas": "0x96a0",
        "value": "0x0",
        "input": "0x87517c45000000000000000000000000b7f8bc63bbcad18155201308c8f3540b07f84f5e0000000000000000000000000165878a594ca255338adfa4d48449f69242eb8f000000000000000000000000ffffffffffffffffffffffffffffffffffffffff0000000000000000000000000000000000000000000000000000ffffffffffff",
        "nonce": "0x24",
        "chainId": "0x7a69"
      },
      "additionalContracts": [],
      "isFixedGasLimit": false
    },
    {
      "hash": "0xad0cf459ca61cb7d53054cb12f7c1b6e5d7bf263b024e6a786a457bfd4e26d89",
      "transactionType": "CALL",
      "contractName": null,
      "contractAddress": "0x0165878a594ca255338adfa4d48449f69242eb8f",
      "function": "multicall(bytes[])",
      "arguments": [
        "[0xf70204050000000000000000000000000000000000000000000000000000000000000000000000000000000000000000b7f8bc63bbcad18155201308c8f3540b07f84f5e0000000000000000000000000000000000000000000000000000000000000bb8000000000000000000000000000000000000000000000000000000000000003c0000000000000000000000000000000000000000000000000000000000000000000000000000000000000000000000000000000100000000000000000000000000000000000000000000000000000000000000000000000000000000000000e00000000000000000000000000000000000000000000000000000000000000000, 0xdd46508f0000000000000000000000000000000000000000000000000000000000000040000000000000000000000000000000000000000000000000000000006714fe410000000000000000000000000000000000000000000000000000000000000300000000000000000000000000000000000000000000000000000000000000004000000000000000000000000000000000000000000000000000000000000000800000000000000000000000000000000000000000000000000000000000000002021100000000000000000000000000000000000000000000000000000000000000000000000000000000000000000000000000000000000000000000000000020000000000000000000000000000000000000000000000000000000000000040000000000000000000000000000000000000000000000000000000000000020000000000000000000000000000000000000000000000000000000000000001a00000000000000000000000000000000000000000000000000000000000000000000000000000000000000000b7f8bc63bbcad18155201308c8f3540b07f84f5e0000000000000000000000000000000000000000000000000000000000000bb8000000000000000000000000000000000000000000000000000000000000003c0000000000000000000000000000000000000000000000000000000000000000fffffffffffffffffffffffffffffffffffffffffffffffffffffffffffffda8000000000000000000000000000000000000000000000000000000000000025800000000000000000000000000000000000000000000000000000007e0df45a1000000000000000000000000000000000000000000000000000000003b9aca01000000000000000000000000000000000000000000000000000000003b9aca010000000000000000000000005b73c5498c1e3b4dba84de0f1833c4a029d905190000000000000000000000000000000000000000000000000000000000000180000000000000000000000000000000000000000000000000000000000000000000000000000000000000000000000000000000000000000000000000000000400000000000000000000000000000000000000000000000000000000000000000000000000000000000000000b7f8bc63bbcad18155201308c8f3540b07f84f5e]"
      ],
      "transaction": {
        "from": "0xf39fd6e51aad88f6f4ce6ab8827279cfffb92266",
        "to": "0x0165878a594ca255338adfa4d48449f69242eb8f",
        "gas": "0x879b7",
        "value": "0x3b9aca01",
        "input": "0xac9650d800000000000000000000000000000000000000000000000000000000000000200000000000000000000000000000000000000000000000000000000000000002000000000000000000000000000000000000000000000000000000000000004000000000000000000000000000000000000000000000000000000000000001800000000000000000000000000000000000000000000000000000000000000104f70204050000000000000000000000000000000000000000000000000000000000000000000000000000000000000000b7f8bc63bbcad18155201308c8f3540b07f84f5e0000000000000000000000000000000000000000000000000000000000000bb8000000000000000000000000000000000000000000000000000000000000003c0000000000000000000000000000000000000000000000000000000000000000000000000000000000000000000000000000000100000000000000000000000000000000000000000000000000000000000000000000000000000000000000e00000000000000000000000000000000000000000000000000000000000000000000000000000000000000000000000000000000000000000000000000000000000000000000000000000000000000000000000000000000000000364dd46508f0000000000000000000000000000000000000000000000000000000000000040000000000000000000000000000000000000000000000000000000006714fe410000000000000000000000000000000000000000000000000000000000000300000000000000000000000000000000000000000000000000000000000000004000000000000000000000000000000000000000000000000000000000000000800000000000000000000000000000000000000000000000000000000000000002021100000000000000000000000000000000000000000000000000000000000000000000000000000000000000000000000000000000000000000000000000020000000000000000000000000000000000000000000000000000000000000040000000000000000000000000000000000000000000000000000000000000020000000000000000000000000000000000000000000000000000000000000001a00000000000000000000000000000000000000000000000000000000000000000000000000000000000000000b7f8bc63bbcad18155201308c8f3540b07f84f5e0000000000000000000000000000000000000000000000000000000000000bb8000000000000000000000000000000000000000000000000000000000000003c0000000000000000000000000000000000000000000000000000000000000000fffffffffffffffffffffffffffffffffffffffffffffffffffffffffffffda8000000000000000000000000000000000000000000000000000000000000025800000000000000000000000000000000000000000000000000000007e0df45a1000000000000000000000000000000000000000000000000000000003b9aca01000000000000000000000000000000000000000000000000000000003b9aca010000000000000000000000005b73c5498c1e3b4dba84de0f1833c4a029d905190000000000000000000000000000000000000000000000000000000000000180000000000000000000000000000000000000000000000000000000000000000000000000000000000000000000000000000000000000000000000000000000400000000000000000000000000000000000000000000000000000000000000000000000000000000000000000b7f8bc63bbcad18155201308c8f3540b07f84f5e00000000000000000000000000000000000000000000000000000000",
        "nonce": "0x25",
        "chainId": "0x7a69"
      },
      "additionalContracts": [],
      "isFixedGasLimit": false
    }
  ],
  "receipts": [
    {
      "status": "0x1",
      "cumulativeGasUsed": "0x66c5",
      "logs": [
        {
          "address": "0xb7f8bc63bbcad18155201308c8f3540b07f84f5e",
          "topics": [
            "0x8c5be1e5ebec7d5bd14f71427d1e84f3dd0314c0f7b2291e5b200ac8c7c3b925",
            "0x000000000000000000000000f39fd6e51aad88f6f4ce6ab8827279cfffb92266",
            "0x000000000000000000000000000000000022d473030f116ddee9f6b43ac78ba3"
          ],
          "data": "0xffffffffffffffffffffffffffffffffffffffffffffffffffffffffffffffff",
          "blockHash": "0xcd33ea0d06ecebf7170ddb9489e68c1e471f1561b67b933134975496f06e2ac4",
          "blockNumber": "0x16",
          "blockTimestamp": "0x6714fe81",
          "transactionHash": "0x4a0b951e96bd5505e54550b00b9ee311af07664af77b0da340696c672f5b5e1f",
          "transactionIndex": "0x0",
          "logIndex": "0x0",
          "removed": false
        }
      ],
      "logsBloom": "0x00000000100000000000000000000000000000000040000000000000000000000000000000000000000000000000000000000000800000000000000000200000000000000000000000004000000000000000800000000800000000000000000000000000000000000000000100000000000000000000000000000000000000000000000000000000000000000000000000000000000000000000000000000000020000000000000000000000000000000000000000000000000000000000000000000000000000200000000000000000000000002000000000000000000000000010000000000000000000000000000000000000000000000000000000000000",
      "type": "0x2",
      "transactionHash": "0x4a0b951e96bd5505e54550b00b9ee311af07664af77b0da340696c672f5b5e1f",
      "transactionIndex": "0x0",
      "blockHash": "0xcd33ea0d06ecebf7170ddb9489e68c1e471f1561b67b933134975496f06e2ac4",
      "blockNumber": "0x16",
      "gasUsed": "0x66c5",
      "effectiveGasPrice": "0x48b9dd5",
      "blobGasPrice": "0x1",
      "from": "0xf39fd6e51aad88f6f4ce6ab8827279cfffb92266",
      "to": "0xb7f8bc63bbcad18155201308c8f3540b07f84f5e",
      "contractAddress": null
    },
    {
      "status": "0x1",
      "cumulativeGasUsed": "0x6d0e",
      "logs": [
        {
          "address": "0x000000000022d473030f116ddee9f6b43ac78ba3",
          "topics": [
            "0xda9fa7c1b00402c17d0161b249b1ab8bbec047c5a52207b9c112deffd817036b",
            "0x000000000000000000000000f39fd6e51aad88f6f4ce6ab8827279cfffb92266",
            "0x000000000000000000000000b7f8bc63bbcad18155201308c8f3540b07f84f5e",
            "0x0000000000000000000000000165878a594ca255338adfa4d48449f69242eb8f"
          ],
          "data": "0x000000000000000000000000ffffffffffffffffffffffffffffffffffffffff0000000000000000000000000000000000000000000000000000ffffffffffff",
          "blockHash": "0x8006b7d76382d0ddd54dc1c50ec8958dcc192f203754d04c9f8e80230cf9acc0",
          "blockNumber": "0x17",
          "blockTimestamp": "0x6714fe82",
          "transactionHash": "0x91a11d4591449c9373494f3e66613c280f54dc97a00cdceddd6411795460bc3c",
          "transactionIndex": "0x0",
          "logIndex": "0x0",
          "removed": false
        }
      ],
      "logsBloom": "0x00010000000000000000000000000000000000000000000040000000000000000000000002000000000000000000000000000000000000000400000000080000000000000000000000000002000000000000000000000000000000000000000000000000000000000000000100000000000000000000000000000400000000000020000000000000000000000000000000000000000000000000000000000000000000000000000000000000000000000000000000000100000000080000000000000000000000200000000000000000000000002000000040000000000000000000000000000000000000000000000000000000000000000000000000000400",
      "type": "0x2",
      "transactionHash": "0x91a11d4591449c9373494f3e66613c280f54dc97a00cdceddd6411795460bc3c",
      "transactionIndex": "0x0",
      "blockHash": "0x8006b7d76382d0ddd54dc1c50ec8958dcc192f203754d04c9f8e80230cf9acc0",
      "blockNumber": "0x17",
      "gasUsed": "0x6d0e",
      "effectiveGasPrice": "0x3fa6b6a",
      "blobGasPrice": "0x1",
      "from": "0xf39fd6e51aad88f6f4ce6ab8827279cfffb92266",
      "to": "0x000000000022d473030f116ddee9f6b43ac78ba3",
      "contractAddress": null
    }
  ],
  "libraries": [],
  "pending": [],
  "returns": {},
  "timestamp": 1729429121,
  "chain": 31337,
  "commit": "62c03b5"
}